{
  "_format": "hh-sol-artifact-1",
  "contractName": "WavePortal",
  "sourceName": "contracts/WavePortal.sol",
  "abi": [
    {
      "inputs": [],
      "stateMutability": "nonpayable",
      "type": "constructor"
    },
    {
      "inputs": [],
      "name": "getTotalWaves",
      "outputs": [
        {
          "internalType": "uint256",
          "name": "",
          "type": "uint256"
        }
      ],
      "stateMutability": "view",
      "type": "function"
    },
    {
      "inputs": [],
      "name": "wave",
      "outputs": [],
      "stateMutability": "nonpayable",
      "type": "function"
    }
  ],
  "bytecode": "0x608060405234801561001057600080fd5b506100596040518060400160405280600d81526020017f48656c6c6f2c204461736821210000000000000000000000000000000000000081525061005e60201b6100c41760201c565b6101e1565b6100fa81604051602401610072919061015f565b6040516020818303038152906040527f41304fac000000000000000000000000000000000000000000000000000000007bffffffffffffffffffffffffffffffffffffffffffffffffffffffff19166020820180517bffffffffffffffffffffffffffffffffffffffffffffffffffffffff83818316178352505050506100fd60201b60201c565b50565b60008151905060006a636f6e736f6c652e6c6f679050602083016000808483855afa5050505050565b600061013182610181565b61013b818561018c565b935061014b81856020860161019d565b610154816101d0565b840191505092915050565b600060208201905081810360008301526101798184610126565b905092915050565b600081519050919050565b600082825260208201905092915050565b60005b838110156101bb5780820151818401526020810190506101a0565b838111156101ca576000848401525b50505050565b6000601f19601f8301169050919050565b610430806101f06000396000f3fe608060405234801561001057600080fd5b50600436106100365760003560e01c80636fe15b441461003b5780639a2cdc0814610045575b600080fd5b610043610063565b005b61004d6100bb565b60405161005a91906102cb565b60405180910390f35b60008081548092919061007590610371565b91905055506100b96040518060400160405280600781526020017f25207761766564000000000000000000000000000000000000000000000000008152503361015d565b565b60008054905090565b61015a816040516024016100d89190610279565b6040516020818303038152906040527f41304fac000000000000000000000000000000000000000000000000000000007bffffffffffffffffffffffffffffffffffffffffffffffffffffffff19166020820180517bffffffffffffffffffffffffffffffffffffffffffffffffffffffff83818316178352505050506101f9565b50565b6101f5828260405160240161017392919061029b565b6040516020818303038152906040527f319af333000000000000000000000000000000000000000000000000000000007bffffffffffffffffffffffffffffffffffffffffffffffffffffffff19166020820180517bffffffffffffffffffffffffffffffffffffffffffffffffffffffff83818316178352505050506101f9565b5050565b60008151905060006a636f6e736f6c652e6c6f679050602083016000808483855afa5050505050565b61022b81610302565b82525050565b600061023c826102e6565b61024681856102f1565b935061025681856020860161033e565b61025f816103e9565b840191505092915050565b61027381610334565b82525050565b600060208201905081810360008301526102938184610231565b905092915050565b600060408201905081810360008301526102b58185610231565b90506102c46020830184610222565b9392505050565b60006020820190506102e0600083018461026a565b92915050565b600081519050919050565b600082825260208201905092915050565b600061030d82610314565b9050919050565b600073ffffffffffffffffffffffffffffffffffffffff82169050919050565b6000819050919050565b60005b8381101561035c578082015181840152602081019050610341565b8381111561036b576000848401525b50505050565b600061037c82610334565b91507fffffffffffffffffffffffffffffffffffffffffffffffffffffffffffffffff8214156103af576103ae6103ba565b5b600182019050919050565b7f4e487b7100000000000000000000000000000000000000000000000000000000600052601160045260246000fd5b6000601f19601f830116905091905056fea26469706673582212203b97c33783ef54241508f9a8752e7e7a38bb75086be708c3dbc06fa6266c348f64736f6c63430008040033",
  "linkReferences": {},
  "deployedLinkReferences": {}
}